:100000000C9424010C9441010C9441010C94410185
:100010000C9441010C9441010C9441010C94410158
:100020000C9441010C9441010C9441010C94410148
:100030000C9441010C9441010C9441010C94410138
:100040000C9441010C9441010C9441010C94410128
:100050000C9441010C9441010C9441010C94410118
:100060000C9441010C9441010000000000060F0FA8
:1000700006000007000700147F147F14242A7F2A3B
:10008000122313086462364955225000050300000C
:10009000001C2241000041221C0014083E081408E4
:1000A000083E0808005030000008080808080060F2
:1000B00060000020100804023E5149453E00427F86
:1000C000400042615149462141454B311814127F8D
:1000D0001027454545393C4A494930017109050316
:1000E0003649494936064949291E0036360000007E
:1000F0005636000008142241001414141414004150
:100100002214080201510906324979413E7E11113B
:10011000117E7F494949363E414141227F4141227A
:100120001C7F494949417F090909013E4149497AF2
:100130007F0808087F00417F41002040413F017F48
:10014000081422417F404040407F020C027F7F0420
:1001500008107F3E4141413E7F090909063E415159
:10016000215E7F09192946464949493101017F012C
:10017000013F4040403F1F2040201F3F4038403F4C
:100180006314081463070870080761514945430068
:100190007F41410002040810200041417F00040219
:1001A0000102044040404040000102040020545439
:1001B00054787F48444438384444442038444448C0
:1001C0007F3854545418087E0901020C5252523E92
:1001D0007F0804047800447D40002040443D007FB7
:1001E0001028440000417F40007C041804787C08FB
:1001F00004047838444444387C1414140808141453
:10020000187C7C080404084854545420043F44409B
:10021000203C4040207C1C2040201C3C4030403C86
:1002200044281028440C5050503C4464544C440022
:100230000836410000007F00000041360800100829
:10024000081008000000000011241FBECFEFD8E006
:10025000DEBFCDBF11E0A0E0B1E0E8EAFAE002C005
:1002600005900D92A23DB107D9F723E0A2EDB1E0D0
:1002700001C01D92A93DB207E1F70E9459030C94F9
:1002800052050C9400001092C50087E68093C400CC
:10029000E0ECF0E080818D7F808386E08093C20077
:1002A00088E18093C1000895CF93C82F8A3019F454
:1002B0008DE00E945401E0ECF0E0908195FFFDCFCD
:1002C000C093C600CF910895E0ECF0E080818823D0
:1002D000ECF78091C60008955F98662311F05E9A4E
:1002E00015C05E9813C0AC01022E02C0559547950B
:1002F0000A94E2F740FF02C05D9A01C05D985C9AE3
:100300005C982150310978F75F9A089527E030E032
:1003100090E0E9CF60E00E946C010895CF93DF93F5
:10032000579A539A569A559A549A5B9A5F9A83ECC5
:1003300099E00197F1F700C000005B988BE594E429
:100340000197F1F700C000005B9A5F9881E20E947C
:100350008A0183E10E948A0186E00E948A0182EC80
:100360000E948A0180E20E948A0189E00E948A013B
:1003700080E80E948A0180E40E948A01C8EFD1E0EF
:1003800061E080E00E946C012197D1F788E00E9433
:100390008A018CE00E948A01DF91CF91089580E864
:1003A0000E948A0180E40E948A011092CA0310927E
:1003B000CB03E2EDF1E08AEC93E01192E817F90744
:1003C000E1F70895811102C084E201C080E20E9439
:1003D0008A010895262F26952695269590E034E5E6
:1003E000239F800D911D1124442379F0FC01EE52CE
:1003F000FE4F677081E090E002C0880F991F6A95F8
:10040000E2F79081892B80830895FC01EE52FE4F24
:10041000677081E090E002C0880F991F6A95E2F74B
:10042000809590818923808308954F925F926F9287
:100430007F928F929F92AF92BF92CF92DF92EF9274
:10044000FF920F931F93CF93DF93562E262F30E00A
:100450004901880C991C880C991C820E931E181453
:1004600019040CF05EC08901000F111F000F111F4D
:10047000000F111F021B130B612C082E000C990B8F
:1004800080975C01AA0CBB1CAA0CBB1CA80EB91E51
:10049000412C0F2EFBECCF2EF3E0DF2EF02D0F2E94
:1004A000FAECEF2EF3E0FF2EF02D2DC0FE0124918B
:1004B00030E0872D652D0E94A30402C03595279555
:1004C0008A95E2F720FF0AC0F6016081670DF70107
:1004D000808141E0860D0E94EA0109C0F601608139
:1004E000670DF7018081442D860D0E94EA01739407
:1004F000872D90E080179107CCF26394862D90E0D1
:100500008815990574F410161106BCF7862D652D13
:100510000E94A304E501C80FD11DC859DF4F742CF8
:10052000C5CF8091CA0391E0980F852D880F880F61
:10053000850D890F843518F48093CA030EC010927C
:10054000CA03EBECF3E0808191E0980F852D880FD2
:10055000880F880F8519890F80838091CB038033A2
:1005600020F01092CA031092CB03DF91CF911F911C
:100570000F91FF90EF90DF90CF90BF90AF909F9042
:100580008F907F906F905F904F9008951F93CF93BF
:10059000DF93EC018881882341F0162F2196612F8B
:1005A0000E94150289918111FACFDF91CF911F919D
:1005B00008958093CA036093CB0308950F931F930C
:1005C000CF93DF9380E80E948A0180E40E948A0131
:1005D000C2EDD1E00AEC13E061E089910E946C0168
:1005E000C017D107C9F7DF91CF911F910F910895DF
:1005F000529A5A982FEF80EE90E021508040904020
:10060000E1F700C000005A9A089552988DE306C0A1
:1006100095E09A95F1F700008150B1F04A99F8CF32
:1006200081E506C095E09A95F1F70000815061F0F0
:100630004A9BF8CF81E506C095E09A95F1F7000056
:10064000815011F04A99F8CF089528E030E080E019
:1006500090E005C00196893E43E0940708F54A9B67
:10066000F9CF40EA4A95F1F74A9B07C04091CC0385
:10067000440F41604093CC030BC04091CC03440F26
:100680004093CC0305C00196893E43E0940750F4A3
:100690004A99F9CF2150310911F78091CC0308957F
:1006A0008FEF08958FEF08956530710508F001967A
:1006B0000895CF93DF9300D000D01F92CDB7DEB75F
:1006C0000E948E010E94CF0161E08CE191E00E94C6
:1006D000C6026AE080E00E94D90262E088E291E00E
:1006E0000E94C60268E280E00E94D9020E94DE02F7
:1006F0002FEF83ED90E3215080409040E1F700C060
:1007000000000E94430103ED13E08EE091E0F80148
:100710009383828380E091E09183808380E391E002
:100720000E9412050E948E010E94CF0161E08AE7BB
:1007300091E00E94C6026AE080E00E94D90261E076
:1007400089E891E00E94C60264E180E00E94D9023B
:1007500061E089E991E00E94C6020E94DE02FFEF9B
:1007600023ED80E3F15020408040E1F700C000001D
:10077000F801808191810E94D404182F86EA91E0CB
:100780000E9412050E94F8020E9405030E942503A0
:100790008093D0030E9425038093CD030E942503FC
:1007A0008093CF030E9425038093D1030E942503E9
:1007B0008093CE039091D0032091CD0330E0290F98
:1007C000311D9091CF03290F311D9091D103290F35
:1007D000311D90E02817390709F08DC00E94CF0124
:1007E0008091D0034AE0BE016F5F7F4F90E00E948E
:1007F000AF0462E083EC91E00E94C60262E0CE01A9
:1008000001960E94C60262E086EC91E00E94C60258
:100810008091CD034AE0BE016F5F7F4F90E00E9460
:10082000AF0462E0CE0101960E94C60262E088EC4D
:1008300091E00E94C6026EE180E00E94D902163665
:1008400041F58091CF0390E02091D103253008F04D
:1008500001968093CF0399270E9482044AE0BE014B
:100860006F5F7F4F0E94AF0462E08AEC91E00E94CC
:10087000C60262E0CE0101960E94C60261E08DECE4
:1008800091E00E94C60262E08FEC91E00E94C602F5
:1008900030C08091CF034AE0BE016F5F7F4F90E090
:1008A0000E94AF0462E08AEC91E00E94C60262E01E
:1008B000CE0101960E94C60262E086EC91E00E94A1
:1008C000C6028091D1034AE0BE016F5F7F4F90E086
:1008D0000E94AF0462E0CE0101960E94C60261E070
:1008E0008DEC91E00E94C60262E088E791E00E94F0
:1008F000C6020E94DE028FE39CE90197F1F700C077
:10090000000040CF9C01220F331F220F331F220F04
:10091000331F820F931F9C0120563F4FADECBCEC60
:10092000A29FB001B39FC001A39F700D811D112430
:10093000911DB29F700D811D1124911D9695879573
:10094000969587950895991B79E004C0991F96178D
:1009500008F0961B881F7A95C9F780950895BB27E4
:100960004A3031F4992322F4BDE2909581959F4F4E
:100970000C94BB04BB27FB015527AA27880F991F9E
:10098000AA1FA41710F0A41B83955051B9F7A05DBE
:10099000AA3308F0A95DA193009779F7B111B1933B
:1009A0001192CB010C944205CF93DF93EC012B8184
:1009B00020FF33C026FF0AC02F7B2B838E819F81AF
:1009C00001969F838E838A8190E029C022FF0FC009
:1009D000E881F9818081082E000C990B009719F4A9
:1009E00020622B831AC03196F983E8830EC0EA8512
:1009F000FB85099597FF09C02B81019611F080E2D4
:100A000001C080E1822B8B8308C02E813F812F5F44
:100A10003F4F3F832E83992702C08FEF9FEFDF91D7
:100A2000CF9108950F931F93CF93DF93E091D50358
:100A3000F091D603238121FF1BC08C01D0E0C0E0E0
:100A4000F80181918F016091D5037091D603DB018C
:100A50001896ED91FC911997882331F00995892B0F
:100A600079F3DFEFCFEFECCF8AE00995892B19F00E
:100A70008FEF9FEF02C08D2F9C2FDF91CF911F91A1
:100A80000F910895DC01FC01672F71917723E1F745
:100A9000329704C07C916D9370836291AE17BF074B
:080AA000C8F30895F894FFCF9C
:100AA80000000001000000000000640100000000D8
:100AB800000200000000540100000000456E676954
:100AC8006E656572696E6700524144264D41520059
:100AD8005072657373206620746F2073686F772077
:100AE80074656D65706572617574726520696E20D4
:100AF800462C20707265737320616E79206B65795E
:100B080020746F2073686F772074656D70657261EB
:100B18007475726520696E20430048756D69646953
:100B280074792654656D702000496E697469616C2A
:100B3800697A6174696F6E20004F70656E20636F0B
:100B48006E736F6C6500496E697469616C697A616E
:100B580074696F6E206F66207468652073656E73A4
:100B68006F7200483D002E002500543D00210046CC
:020B780000007B
:00000001FF
